{
  "_format": "hh-sol-artifact-1",
  "contractName": "DepositVault",
  "sourceName": "contracts/DepositVault.sol",
  "abi": [
    {
      "inputs": [
        {
          "internalType": "address",
          "name": "asset_",
          "type": "address"
        }
      ],
      "stateMutability": "nonpayable",
      "type": "constructor"
    },
    {
      "inputs": [],
      "name": "ReentrancyGuardReentrantCall",
      "type": "error"
    },
    {
      "inputs": [
        {
          "internalType": "address",
          "name": "token",
          "type": "address"
        }
      ],
      "name": "SafeERC20FailedOperation",
      "type": "error"
    },
    {
      "anonymous": false,
      "inputs": [
        {
          "indexed": true,
          "internalType": "address",
          "name": "user",
          "type": "address"
        },
        {
          "indexed": false,
          "internalType": "uint256",
          "name": "amount",
          "type": "uint256"
        }
      ],
      "name": "Deposited",
      "type": "event"
    },
    {
      "anonymous": false,
      "inputs": [
        {
          "indexed": true,
          "internalType": "address",
          "name": "user",
          "type": "address"
        },
        {
          "indexed": false,
          "internalType": "uint256",
          "name": "amount",
          "type": "uint256"
        }
      ],
      "name": "Withdrawn",
      "type": "event"
    },
    {
      "inputs": [],
      "name": "asset",
      "outputs": [
        {
          "internalType": "contract IERC20",
          "name": "",
          "type": "address"
        }
      ],
      "stateMutability": "view",
      "type": "function"
    },
    {
      "inputs": [
        {
          "internalType": "address",
          "name": "u",
          "type": "address"
        }
      ],
      "name": "balanceOf",
      "outputs": [
        {
          "internalType": "uint256",
          "name": "",
          "type": "uint256"
        }
      ],
      "stateMutability": "view",
      "type": "function"
    },
    {
      "inputs": [
        {
          "internalType": "uint256",
          "name": "amount",
          "type": "uint256"
        }
      ],
      "name": "deposit",
      "outputs": [],
      "stateMutability": "nonpayable",
      "type": "function"
    },
    {
      "inputs": [
        {
          "internalType": "uint256",
          "name": "amount",
          "type": "uint256"
        },
        {
          "internalType": "uint256",
          "name": "deadline",
          "type": "uint256"
        },
        {
          "internalType": "uint8",
          "name": "v",
          "type": "uint8"
        },
        {
          "internalType": "bytes32",
          "name": "r",
          "type": "bytes32"
        },
        {
          "internalType": "bytes32",
          "name": "s",
          "type": "bytes32"
        }
      ],
      "name": "permitAndDeposit",
      "outputs": [],
      "stateMutability": "nonpayable",
      "type": "function"
    },
    {
      "inputs": [],
      "name": "totalAssets",
      "outputs": [
        {
          "internalType": "uint256",
          "name": "",
          "type": "uint256"
        }
      ],
      "stateMutability": "view",
      "type": "function"
    },
    {
      "inputs": [
        {
          "internalType": "uint256",
          "name": "amount",
          "type": "uint256"
        }
      ],
      "name": "withdraw",
      "outputs": [],
      "stateMutability": "nonpayable",
      "type": "function"
    }
  ],
  "bytecode": "0x60a06040523480156200001157600080fd5b506040516200105838038062001058833981810160405281019062000037919062000156565b6001600081905550600073ffffffffffffffffffffffffffffffffffffffff168173ffffffffffffffffffffffffffffffffffffffff1603620000b1576040517f08c379a0000000000000000000000000000000000000000000000000000000008152600401620000a890620001e9565b60405180910390fd5b8073ffffffffffffffffffffffffffffffffffffffff1660808173ffffffffffffffffffffffffffffffffffffffff1681525050506200020b565b600080fd5b600073ffffffffffffffffffffffffffffffffffffffff82169050919050565b60006200011e82620000f1565b9050919050565b620001308162000111565b81146200013c57600080fd5b50565b600081519050620001508162000125565b92915050565b6000602082840312156200016f576200016e620000ec565b5b60006200017f848285016200013f565b91505092915050565b600082825260208201905092915050565b7f61737365743d3000000000000000000000000000000000000000000000000000600082015250565b6000620001d160078362000188565b9150620001de8262000199565b602082019050919050565b600060208201905081810360008301526200020481620001c2565b9050919050565b608051610e15620002436000396000818161026e0152818161030e015281816103cc0152818161052601526105c30152610e156000f3fe608060405234801561001057600080fd5b50600436106100625760003560e01c806301e1d114146100675780632e1a7d4d1461008557806338d52e0f146100a157806370a08231146100bf578063b6b55f25146100ef578063e973564b1461010b575b600080fd5b61006f610127565b60405161007c91906108e0565b60405180910390f35b61009f600480360381019061009a919061092c565b61012d565b005b6100a961030c565b6040516100b691906109d8565b60405180910390f35b6100d960048036038101906100d49190610a31565b610330565b6040516100e691906108e0565b60405180910390f35b6101096004803603810190610104919061092c565b610379565b005b61012560048036038101906101209190610acd565b6104d9565b005b60025481565b6101356106d4565b60008111610178576040517f08c379a000000000000000000000000000000000000000000000000000000000815260040161016f90610ba5565b60405180910390fd5b6000600160003373ffffffffffffffffffffffffffffffffffffffff1673ffffffffffffffffffffffffffffffffffffffff168152602001908152602001600020549050818110156101ff576040517f08c379a00000000000000000000000000000000000000000000000000000000081526004016101f690610c11565b60405180910390fd5b818161020b9190610c60565b600160003373ffffffffffffffffffffffffffffffffffffffff1673ffffffffffffffffffffffffffffffffffffffff1681526020019081526020016000208190555081600260008282546102609190610c60565b925050819055506102b233837f000000000000000000000000000000000000000000000000000000000000000073ffffffffffffffffffffffffffffffffffffffff1661071a9092919063ffffffff16565b3373ffffffffffffffffffffffffffffffffffffffff167f7084f5476618d8e60b11ef0d7d3f06914655adb8793e28ff7f018d4c76d505d5836040516102f891906108e0565b60405180910390a250610309610799565b50565b7f000000000000000000000000000000000000000000000000000000000000000081565b6000600160008373ffffffffffffffffffffffffffffffffffffffff1673ffffffffffffffffffffffffffffffffffffffff168152602001908152602001600020549050919050565b6103816106d4565b600081116103c4576040517f08c379a00000000000000000000000000000000000000000000000000000000081526004016103bb90610ba5565b60405180910390fd5b6104113330837f000000000000000000000000000000000000000000000000000000000000000073ffffffffffffffffffffffffffffffffffffffff166107a3909392919063ffffffff16565b80600160003373ffffffffffffffffffffffffffffffffffffffff1673ffffffffffffffffffffffffffffffffffffffff16815260200190815260200160002060008282546104609190610c94565b9250508190555080600260008282546104799190610c94565b925050819055503373ffffffffffffffffffffffffffffffffffffffff167f2da466a7b24304f47e87fa2e1e5a81b9831ce54fec19055ce277ca2f39ba42c4826040516104c691906108e0565b60405180910390a26104d6610799565b50565b6104e16106d4565b60008511610524576040517f08c379a000000000000000000000000000000000000000000000000000000000815260040161051b90610ba5565b60405180910390fd5b7f000000000000000000000000000000000000000000000000000000000000000073ffffffffffffffffffffffffffffffffffffffff1663d505accf333088888888886040518863ffffffff1660e01b81526004016105899796959493929190610cf5565b600060405180830381600087803b1580156105a357600080fd5b505af11580156105b7573d6000803e3d6000fd5b505050506106083330877f000000000000000000000000000000000000000000000000000000000000000073ffffffffffffffffffffffffffffffffffffffff166107a3909392919063ffffffff16565b84600160003373ffffffffffffffffffffffffffffffffffffffff1673ffffffffffffffffffffffffffffffffffffffff16815260200190815260200160002060008282546106579190610c94565b9250508190555084600260008282546106709190610c94565b925050819055503373ffffffffffffffffffffffffffffffffffffffff167f2da466a7b24304f47e87fa2e1e5a81b9831ce54fec19055ce277ca2f39ba42c4866040516106bd91906108e0565b60405180910390a26106cd610799565b5050505050565b600260005403610710576040517f3ee5aeb500000000000000000000000000000000000000000000000000000000815260040160405180910390fd5b6002600081905550565b610794838473ffffffffffffffffffffffffffffffffffffffff1663a9059cbb858560405160240161074d929190610d64565b604051602081830303815290604052915060e01b6020820180517bffffffffffffffffffffffffffffffffffffffffffffffffffffffff8381831617835250505050610825565b505050565b6001600081905550565b61081f848573ffffffffffffffffffffffffffffffffffffffff166323b872dd8686866040516024016107d893929190610d8d565b604051602081830303815290604052915060e01b6020820180517bffffffffffffffffffffffffffffffffffffffffffffffffffffffff8381831617835250505050610825565b50505050565b600080602060008451602086016000885af180610848576040513d6000823e3d81fd5b3d92506000519150506000821461086357600181141561087f565b60008473ffffffffffffffffffffffffffffffffffffffff163b145b156108c157836040517f5274afe70000000000000000000000000000000000000000000000000000000081526004016108b89190610dc4565b60405180910390fd5b50505050565b6000819050919050565b6108da816108c7565b82525050565b60006020820190506108f560008301846108d1565b92915050565b600080fd5b610909816108c7565b811461091457600080fd5b50565b60008135905061092681610900565b92915050565b600060208284031215610942576109416108fb565b5b600061095084828501610917565b91505092915050565b600073ffffffffffffffffffffffffffffffffffffffff82169050919050565b6000819050919050565b600061099e61099961099484610959565b610979565b610959565b9050919050565b60006109b082610983565b9050919050565b60006109c2826109a5565b9050919050565b6109d2816109b7565b82525050565b60006020820190506109ed60008301846109c9565b92915050565b60006109fe82610959565b9050919050565b610a0e816109f3565b8114610a1957600080fd5b50565b600081359050610a2b81610a05565b92915050565b600060208284031215610a4757610a466108fb565b5b6000610a5584828501610a1c565b91505092915050565b600060ff82169050919050565b610a7481610a5e565b8114610a7f57600080fd5b50565b600081359050610a9181610a6b565b92915050565b6000819050919050565b610aaa81610a97565b8114610ab557600080fd5b50565b600081359050610ac781610aa1565b92915050565b600080600080600060a08688031215610ae957610ae86108fb565b5b6000610af788828901610917565b9550506020610b0888828901610917565b9450506040610b1988828901610a82565b9350506060610b2a88828901610ab8565b9250506080610b3b88828901610ab8565b9150509295509295909350565b600082825260208201905092915050565b7f616d6f756e743d30000000000000000000000000000000000000000000000000600082015250565b6000610b8f600883610b48565b9150610b9a82610b59565b602082019050919050565b60006020820190508181036000830152610bbe81610b82565b9050919050565b7f696e73756666696369656e740000000000000000000000000000000000000000600082015250565b6000610bfb600c83610b48565b9150610c0682610bc5565b602082019050919050565b60006020820190508181036000830152610c2a81610bee565b9050919050565b7f4e487b7100000000000000000000000000000000000000000000000000000000600052601160045260246000fd5b6000610c6b826108c7565b9150610c76836108c7565b9250828203905081811115610c8e57610c8d610c31565b5b92915050565b6000610c9f826108c7565b9150610caa836108c7565b9250828201905080821115610cc257610cc1610c31565b5b92915050565b610cd1816109f3565b82525050565b610ce081610a5e565b82525050565b610cef81610a97565b82525050565b600060e082019050610d0a600083018a610cc8565b610d176020830189610cc8565b610d2460408301886108d1565b610d3160608301876108d1565b610d3e6080830186610cd7565b610d4b60a0830185610ce6565b610d5860c0830184610ce6565b98975050505050505050565b6000604082019050610d796000830185610cc8565b610d8660208301846108d1565b9392505050565b6000606082019050610da26000830186610cc8565b610daf6020830185610cc8565b610dbc60408301846108d1565b949350505050565b6000602082019050610dd96000830184610cc8565b9291505056fea2646970667358221220e8e6c46342cb239fffb0f7624355d58c87d062628c27e00820c4b0ee28df3ecc64736f6c63430008140033",
  "linkReferences": {},
  "deployedLinkReferences": {}
}