{
  "_format": "hh-sol-artifact-1",
  "contractName": "P2PLending",
  "sourceName": "contracts/lending/P2PLending.sol",
  "abi": [
    {
      "anonymous": false,
      "inputs": [
        {
          "indexed": true,
          "internalType": "uint256",
          "name": "id",
          "type": "uint256"
        },
        {
          "indexed": true,
          "internalType": "address",
          "name": "borrower",
          "type": "address"
        },
        {
          "indexed": false,
          "internalType": "uint256",
          "name": "startTs",
          "type": "uint256"
        },
        {
          "indexed": false,
          "internalType": "uint256",
          "name": "dueTs",
          "type": "uint256"
        }
      ],
      "name": "LoanAccepted",
      "type": "event"
    },
    {
      "anonymous": false,
      "inputs": [
        {
          "indexed": true,
          "internalType": "uint256",
          "name": "id",
          "type": "uint256"
        },
        {
          "indexed": true,
          "internalType": "address",
          "name": "lender",
          "type": "address"
        },
        {
          "indexed": false,
          "internalType": "uint256",
          "name": "principal",
          "type": "uint256"
        },
        {
          "indexed": false,
          "internalType": "uint256",
          "name": "duration",
          "type": "uint256"
        }
      ],
      "name": "OfferCreated",
      "type": "event"
    },
    {
      "anonymous": false,
      "inputs": [
        {
          "indexed": true,
          "internalType": "uint256",
          "name": "id",
          "type": "uint256"
        },
        {
          "indexed": true,
          "internalType": "address",
          "name": "borrower",
          "type": "address"
        },
        {
          "indexed": false,
          "internalType": "uint256",
          "name": "amount",
          "type": "uint256"
        },
        {
          "indexed": false,
          "internalType": "uint256",
          "name": "totalRepaid",
          "type": "uint256"
        }
      ],
      "name": "Repaid",
      "type": "event"
    },
    {
      "inputs": [
        {
          "internalType": "uint256",
          "name": "id",
          "type": "uint256"
        }
      ],
      "name": "acceptOffer",
      "outputs": [],
      "stateMutability": "nonpayable",
      "type": "function"
    },
    {
      "inputs": [
        {
          "internalType": "uint256",
          "name": "principal",
          "type": "uint256"
        },
        {
          "internalType": "uint256",
          "name": "duration",
          "type": "uint256"
        }
      ],
      "name": "createOffer",
      "outputs": [
        {
          "internalType": "uint256",
          "name": "id",
          "type": "uint256"
        }
      ],
      "stateMutability": "nonpayable",
      "type": "function"
    },
    {
      "inputs": [
        {
          "internalType": "uint256",
          "name": "",
          "type": "uint256"
        }
      ],
      "name": "loans",
      "outputs": [
        {
          "internalType": "address",
          "name": "lender",
          "type": "address"
        },
        {
          "internalType": "address",
          "name": "borrower",
          "type": "address"
        },
        {
          "internalType": "uint256",
          "name": "principal",
          "type": "uint256"
        },
        {
          "internalType": "uint256",
          "name": "duration",
          "type": "uint256"
        },
        {
          "internalType": "uint256",
          "name": "startTs",
          "type": "uint256"
        },
        {
          "internalType": "uint256",
          "name": "dueTs",
          "type": "uint256"
        },
        {
          "internalType": "uint256",
          "name": "repaid",
          "type": "uint256"
        }
      ],
      "stateMutability": "view",
      "type": "function"
    },
    {
      "inputs": [],
      "name": "nextId",
      "outputs": [
        {
          "internalType": "uint256",
          "name": "",
          "type": "uint256"
        }
      ],
      "stateMutability": "view",
      "type": "function"
    },
    {
      "inputs": [
        {
          "internalType": "uint256",
          "name": "id",
          "type": "uint256"
        },
        {
          "internalType": "uint256",
          "name": "amount",
          "type": "uint256"
        }
      ],
      "name": "repay",
      "outputs": [],
      "stateMutability": "nonpayable",
      "type": "function"
    }
  ],
  "bytecode": "0x608060405234801561001057600080fd5b50610d06806100206000396000f3fe608060405234801561001057600080fd5b50600436106100575760003560e01c80631afed8751461005c57806361b8ce8c1461008c578063c815729d146100aa578063d8aed145146100c6578063e1ec3c68146100e2575b600080fd5b610076600480360381019061007191906107b0565b610118565b60405161008391906107ff565b60405180910390f35b610094610347565b6040516100a191906107ff565b60405180910390f35b6100c460048036038101906100bf919061081a565b61034d565b005b6100e060048036038101906100db91906107b0565b61054b565b005b6100fc60048036038101906100f7919061081a565b6106f3565b60405161010f9796959493929190610888565b60405180910390f35b600080831161015c576040517f08c379a000000000000000000000000000000000000000000000000000000000815260040161015390610954565b60405180910390fd5b6000821161019f576040517f08c379a0000000000000000000000000000000000000000000000000000000008152600401610196906109c0565b60405180910390fd5b6000808154809291906101b190610a0f565b9190505590506040518060e001604052803373ffffffffffffffffffffffffffffffffffffffff168152602001600073ffffffffffffffffffffffffffffffffffffffff168152602001848152602001838152602001600081526020016000815260200160008152506001600083815260200190815260200160002060008201518160000160006101000a81548173ffffffffffffffffffffffffffffffffffffffff021916908373ffffffffffffffffffffffffffffffffffffffff16021790555060208201518160010160006101000a81548173ffffffffffffffffffffffffffffffffffffffff021916908373ffffffffffffffffffffffffffffffffffffffff16021790555060408201518160020155606082015181600301556080820151816004015560a0820151816005015560c082015181600601559050503373ffffffffffffffffffffffffffffffffffffffff16817fbf26a47e2418fff23bee5882ae59627d33e81fa75ab2b1fa08de6cf5f2fa37618585604051610339929190610a57565b60405180910390a392915050565b60005481565b6000600160008381526020019081526020016000209050600073ffffffffffffffffffffffffffffffffffffffff168160000160009054906101000a900473ffffffffffffffffffffffffffffffffffffffff1673ffffffffffffffffffffffffffffffffffffffff16036103f7576040517f08c379a00000000000000000000000000000000000000000000000000000000081526004016103ee90610acc565b60405180910390fd5b600073ffffffffffffffffffffffffffffffffffffffff168160010160009054906101000a900473ffffffffffffffffffffffffffffffffffffffff1673ffffffffffffffffffffffffffffffffffffffff161461048a576040517f08c379a000000000000000000000000000000000000000000000000000000000815260040161048190610b38565b60405180910390fd5b338160010160006101000a81548173ffffffffffffffffffffffffffffffffffffffff021916908373ffffffffffffffffffffffffffffffffffffffff1602179055504281600401819055508060030154426104e69190610b58565b81600501819055503373ffffffffffffffffffffffffffffffffffffffff16827fcc6028e98d5f977a24dcd2bcbeb3d192fa658aa8e0a3e798b267fcdd0dfcbdd18360040154846005015460405161053f929190610a57565b60405180910390a35050565b60006001600084815260200190815260200160002090503373ffffffffffffffffffffffffffffffffffffffff168160010160009054906101000a900473ffffffffffffffffffffffffffffffffffffffff1673ffffffffffffffffffffffffffffffffffffffff16146105f4576040517f08c379a00000000000000000000000000000000000000000000000000000000081526004016105eb90610bd8565b60405180910390fd5b600081600401541161063b576040517f08c379a000000000000000000000000000000000000000000000000000000000815260040161063290610c44565b60405180910390fd5b6000821161067e576040517f08c379a000000000000000000000000000000000000000000000000000000000815260040161067590610cb0565b60405180910390fd5b818160060160008282546106929190610b58565b925050819055503373ffffffffffffffffffffffffffffffffffffffff16837f82f3cd1e351c1cf149e065782737f7cd0d51ef52fdb03157f0490fc9d069ab478484600601546040516106e6929190610a57565b60405180910390a3505050565b60016020528060005260406000206000915090508060000160009054906101000a900473ffffffffffffffffffffffffffffffffffffffff16908060010160009054906101000a900473ffffffffffffffffffffffffffffffffffffffff16908060020154908060030154908060040154908060050154908060060154905087565b600080fd5b6000819050919050565b61078d8161077a565b811461079857600080fd5b50565b6000813590506107aa81610784565b92915050565b600080604083850312156107c7576107c6610775565b5b60006107d58582860161079b565b92505060206107e68582860161079b565b9150509250929050565b6107f98161077a565b82525050565b600060208201905061081460008301846107f0565b92915050565b6000602082840312156108305761082f610775565b5b600061083e8482850161079b565b91505092915050565b600073ffffffffffffffffffffffffffffffffffffffff82169050919050565b600061087282610847565b9050919050565b61088281610867565b82525050565b600060e08201905061089d600083018a610879565b6108aa6020830189610879565b6108b760408301886107f0565b6108c460608301876107f0565b6108d160808301866107f0565b6108de60a08301856107f0565b6108eb60c08301846107f0565b98975050505050505050565b600082825260208201905092915050565b7f7072696e636970616c3d30000000000000000000000000000000000000000000600082015250565b600061093e600b836108f7565b915061094982610908565b602082019050919050565b6000602082019050818103600083015261096d81610931565b9050919050565b7f6475726174696f6e3d3000000000000000000000000000000000000000000000600082015250565b60006109aa600a836108f7565b91506109b582610974565b602082019050919050565b600060208201905081810360008301526109d98161099d565b9050919050565b7f4e487b7100000000000000000000000000000000000000000000000000000000600052601160045260246000fd5b6000610a1a8261077a565b91507fffffffffffffffffffffffffffffffffffffffffffffffffffffffffffffffff8203610a4c57610a4b6109e0565b5b600182019050919050565b6000604082019050610a6c60008301856107f0565b610a7960208301846107f0565b9392505050565b7f6e6f206f66666572000000000000000000000000000000000000000000000000600082015250565b6000610ab66008836108f7565b9150610ac182610a80565b602082019050919050565b60006020820190508181036000830152610ae581610aa9565b9050919050565b7f616c726561647920616363657074656400000000000000000000000000000000600082015250565b6000610b226010836108f7565b9150610b2d82610aec565b602082019050919050565b60006020820190508181036000830152610b5181610b15565b9050919050565b6000610b638261077a565b9150610b6e8361077a565b9250828201905080821115610b8657610b856109e0565b5b92915050565b7f6e6f7420626f72726f7765720000000000000000000000000000000000000000600082015250565b6000610bc2600c836108f7565b9150610bcd82610b8c565b602082019050919050565b60006020820190508181036000830152610bf181610bb5565b9050919050565b7f6e6f742061637469766500000000000000000000000000000000000000000000600082015250565b6000610c2e600a836108f7565b9150610c3982610bf8565b602082019050919050565b60006020820190508181036000830152610c5d81610c21565b9050919050565b7f616d6f756e743d30000000000000000000000000000000000000000000000000600082015250565b6000610c9a6008836108f7565b9150610ca582610c64565b602082019050919050565b60006020820190508181036000830152610cc981610c8d565b905091905056fea264697066735822122017e8c2ac5698f0ab9560c4bb96d2c1985406f0467722cbfe9153cccf6373ff2164736f6c63430008140033",
  "linkReferences": {},
  "deployedLinkReferences": {}
}