{
  "_format": "hh-sol-artifact-1",
  "contractName": "LoanContract",
  "sourceName": "contracts/LoanContract.sol",
  "abi": [
    {
      "inputs": [
        {
          "internalType": "contract IERC20",
          "name": "_collateralToken",
          "type": "address"
        },
        {
          "internalType": "contract IERC20",
          "name": "_lendingToken",
          "type": "address"
        },
        {
          "internalType": "uint256",
          "name": "_collateralFactor",
          "type": "uint256"
        }
      ],
      "stateMutability": "nonpayable",
      "type": "constructor"
    },
    {
      "inputs": [
        {
          "internalType": "address",
          "name": "owner",
          "type": "address"
        }
      ],
      "name": "OwnableInvalidOwner",
      "type": "error"
    },
    {
      "inputs": [
        {
          "internalType": "address",
          "name": "account",
          "type": "address"
        }
      ],
      "name": "OwnableUnauthorizedAccount",
      "type": "error"
    },
    {
      "anonymous": false,
      "inputs": [
        {
          "indexed": true,
          "internalType": "address",
          "name": "user",
          "type": "address"
        },
        {
          "indexed": false,
          "internalType": "uint256",
          "name": "amount",
          "type": "uint256"
        }
      ],
      "name": "CollateralDeposited",
      "type": "event"
    },
    {
      "anonymous": false,
      "inputs": [
        {
          "indexed": true,
          "internalType": "address",
          "name": "user",
          "type": "address"
        },
        {
          "indexed": false,
          "internalType": "uint256",
          "name": "amount",
          "type": "uint256"
        }
      ],
      "name": "CollateralWithdraw",
      "type": "event"
    },
    {
      "anonymous": false,
      "inputs": [
        {
          "indexed": true,
          "internalType": "address",
          "name": "user",
          "type": "address"
        },
        {
          "indexed": false,
          "internalType": "uint256",
          "name": "amount",
          "type": "uint256"
        }
      ],
      "name": "LoanRepaid",
      "type": "event"
    },
    {
      "anonymous": false,
      "inputs": [
        {
          "indexed": true,
          "internalType": "address",
          "name": "user",
          "type": "address"
        },
        {
          "indexed": false,
          "internalType": "uint256",
          "name": "amount",
          "type": "uint256"
        }
      ],
      "name": "LoanTaken",
      "type": "event"
    },
    {
      "anonymous": false,
      "inputs": [
        {
          "indexed": true,
          "internalType": "address",
          "name": "previousOwner",
          "type": "address"
        },
        {
          "indexed": true,
          "internalType": "address",
          "name": "newOwner",
          "type": "address"
        }
      ],
      "name": "OwnershipTransferred",
      "type": "event"
    },
    {
      "inputs": [
        {
          "internalType": "address",
          "name": "",
          "type": "address"
        }
      ],
      "name": "collateralBalances",
      "outputs": [
        {
          "internalType": "uint256",
          "name": "",
          "type": "uint256"
        }
      ],
      "stateMutability": "view",
      "type": "function"
    },
    {
      "inputs": [],
      "name": "collateralFactor",
      "outputs": [
        {
          "internalType": "uint256",
          "name": "",
          "type": "uint256"
        }
      ],
      "stateMutability": "view",
      "type": "function"
    },
    {
      "inputs": [],
      "name": "collateralToken",
      "outputs": [
        {
          "internalType": "contract IERC20",
          "name": "",
          "type": "address"
        }
      ],
      "stateMutability": "view",
      "type": "function"
    },
    {
      "inputs": [
        {
          "internalType": "uint256",
          "name": "_amount",
          "type": "uint256"
        }
      ],
      "name": "depositCollateral",
      "outputs": [],
      "stateMutability": "nonpayable",
      "type": "function"
    },
    {
      "inputs": [
        {
          "internalType": "address",
          "name": "_user",
          "type": "address"
        }
      ],
      "name": "getLoanDetails",
      "outputs": [
        {
          "internalType": "uint256",
          "name": "amount",
          "type": "uint256"
        },
        {
          "internalType": "uint256",
          "name": "collateral",
          "type": "uint256"
        },
        {
          "internalType": "bool",
          "name": "isActive",
          "type": "bool"
        }
      ],
      "stateMutability": "view",
      "type": "function"
    },
    {
      "inputs": [],
      "name": "lendingToken",
      "outputs": [
        {
          "internalType": "contract IERC20",
          "name": "",
          "type": "address"
        }
      ],
      "stateMutability": "view",
      "type": "function"
    },
    {
      "inputs": [
        {
          "internalType": "address",
          "name": "",
          "type": "address"
        }
      ],
      "name": "loans",
      "outputs": [
        {
          "internalType": "uint256",
          "name": "amount",
          "type": "uint256"
        },
        {
          "internalType": "uint256",
          "name": "collateral",
          "type": "uint256"
        },
        {
          "internalType": "bool",
          "name": "isActive",
          "type": "bool"
        }
      ],
      "stateMutability": "view",
      "type": "function"
    },
    {
      "inputs": [],
      "name": "owner",
      "outputs": [
        {
          "internalType": "address",
          "name": "",
          "type": "address"
        }
      ],
      "stateMutability": "view",
      "type": "function"
    },
    {
      "inputs": [],
      "name": "renounceOwnership",
      "outputs": [],
      "stateMutability": "nonpayable",
      "type": "function"
    },
    {
      "inputs": [
        {
          "internalType": "uint256",
          "name": "_amount",
          "type": "uint256"
        }
      ],
      "name": "repayLoan",
      "outputs": [],
      "stateMutability": "nonpayable",
      "type": "function"
    },
    {
      "inputs": [
        {
          "internalType": "uint256",
          "name": "_newFactor",
          "type": "uint256"
        }
      ],
      "name": "setCollateralFactor",
      "outputs": [],
      "stateMutability": "nonpayable",
      "type": "function"
    },
    {
      "inputs": [
        {
          "internalType": "uint256",
          "name": "_amount",
          "type": "uint256"
        }
      ],
      "name": "takeLoan",
      "outputs": [],
      "stateMutability": "nonpayable",
      "type": "function"
    },
    {
      "inputs": [
        {
          "internalType": "address",
          "name": "newOwner",
          "type": "address"
        }
      ],
      "name": "transferOwnership",
      "outputs": [],
      "stateMutability": "nonpayable",
      "type": "function"
    },
    {
      "inputs": [
        {
          "internalType": "uint256",
          "name": "_amount",
          "type": "uint256"
        }
      ],
      "name": "withdrawCollateral",
      "outputs": [],
      "stateMutability": "nonpayable",
      "type": "function"
    }
  ],
  "bytecode": "0x60c06040523480156200001157600080fd5b5060405162001da438038062001da48339818101604052810190620000379190620002fb565b33600073ffffffffffffffffffffffffffffffffffffffff168173ffffffffffffffffffffffffffffffffffffffff1603620000ad5760006040517f1e4fbdf7000000000000000000000000000000000000000000000000000000008152600401620000a4919062000368565b60405180910390fd5b620000be816200017e60201b60201c565b50606481111562000106576040517f08c379a0000000000000000000000000000000000000000000000000000000008152600401620000fd90620003e6565b60405180910390fd5b8273ffffffffffffffffffffffffffffffffffffffff1660808173ffffffffffffffffffffffffffffffffffffffff16815250508173ffffffffffffffffffffffffffffffffffffffff1660a08173ffffffffffffffffffffffffffffffffffffffff16815250508060018190555050505062000408565b60008060009054906101000a900473ffffffffffffffffffffffffffffffffffffffff169050816000806101000a81548173ffffffffffffffffffffffffffffffffffffffff021916908373ffffffffffffffffffffffffffffffffffffffff1602179055508173ffffffffffffffffffffffffffffffffffffffff168173ffffffffffffffffffffffffffffffffffffffff167f8be0079c531659141344cd1fd0a4f28419497f9722a3daafe3b4186f6b6457e060405160405180910390a35050565b600080fd5b600073ffffffffffffffffffffffffffffffffffffffff82169050919050565b6000620002748262000247565b9050919050565b6000620002888262000267565b9050919050565b6200029a816200027b565b8114620002a657600080fd5b50565b600081519050620002ba816200028f565b92915050565b6000819050919050565b620002d581620002c0565b8114620002e157600080fd5b50565b600081519050620002f581620002ca565b92915050565b60008060006060848603121562000317576200031662000242565b5b60006200032786828701620002a9565b93505060206200033a86828701620002a9565b92505060406200034d86828701620002e4565b9150509250925092565b620003628162000267565b82525050565b60006020820190506200037f600083018462000357565b92915050565b600082825260208201905092915050565b7f436f6c6c61746572616c20666163746f72206d757374206265203c3d20313030600082015250565b6000620003ce60208362000385565b9150620003db8262000396565b602082019050919050565b600060208201905081810360008301526200040181620003bf565b9050919050565b60805160a05161195a6200044a600039600081816108040152818161091e0152610a6001526000818161047c01528181610b980152610cab015261195a6000f3fe608060405234801561001057600080fd5b50600436106100ea5760003560e01c8063ab7b1c891161008c578063bad4a01f11610066578063bad4a01f14610225578063df011c4114610241578063e8a7da8e1461025f578063f2fde38b14610291576100ea565b8063ab7b1c89146101cf578063b2016bd4146101eb578063b5c2215714610209576100ea565b806373b4086b116100c857806373b4086b146101455780638c803fc2146101775780638da5cb5b14610193578063aaaca558146101b1576100ea565b806329bc969d146100ef5780636112fe2e1461011f578063715018a61461013b575b600080fd5b61010960048036038101906101049190611133565b6102ad565b6040516101169190611179565b60405180910390f35b610139600480360381019061013491906111c0565b6102c5565b005b61014361056b565b005b61015f600480360381019061015a9190611133565b61057f565b60405161016e93929190611208565b60405180910390f35b610191600480360381019061018c91906111c0565b6105b6565b005b61019b6108f3565b6040516101a8919061124e565b60405180910390f35b6101b961091c565b6040516101c691906112c8565b60405180910390f35b6101e960048036038101906101e491906111c0565b610940565b005b6101f3610b96565b60405161020091906112c8565b60405180910390f35b610223600480360381019061021e91906111c0565b610bba565b005b61023f600480360381019061023a91906111c0565b610c10565b005b610249610d9b565b6040516102569190611179565b60405180910390f35b61027960048036038101906102749190611133565b610da1565b60405161028893929190611208565b60405180910390f35b6102ab60048036038101906102a69190611133565b610e3f565b005b60026020528060005260406000206000915090505481565b60008111610308576040517f08c379a00000000000000000000000000000000000000000000000000000000081526004016102ff90611366565b60405180910390fd5b80600260003373ffffffffffffffffffffffffffffffffffffffff1673ffffffffffffffffffffffffffffffffffffffff16815260200190815260200160002054101561038a576040517f08c379a0000000000000000000000000000000000000000000000000000000008152600401610381906113d2565b60405180910390fd5b600061039533610ec5565b600260003373ffffffffffffffffffffffffffffffffffffffff1673ffffffffffffffffffffffffffffffffffffffff168152602001908152602001600020546103df9190611421565b905080821115610424576040517f08c379a000000000000000000000000000000000000000000000000000000000815260040161041b906114c7565b60405180910390fd5b81600260003373ffffffffffffffffffffffffffffffffffffffff1673ffffffffffffffffffffffffffffffffffffffff16815260200190815260200160002060008282546104739190611421565b925050819055507f000000000000000000000000000000000000000000000000000000000000000073ffffffffffffffffffffffffffffffffffffffff1663a9059cbb33846040518363ffffffff1660e01b81526004016104d59291906114e7565b6020604051808303816000875af11580156104f4573d6000803e3d6000fd5b505050506040513d601f19601f82011682018060405250810190610518919061153c565b503373ffffffffffffffffffffffffffffffffffffffff167f92682d28e4c16f4a2ddb833ecdd2bab2f2da69e2f325cda58d421e7d634b8e278360405161055f9190611179565b60405180910390a25050565b610573610f7d565b61057d6000611004565b565b60036020528060005260406000206000915090508060000154908060010154908060020160009054906101000a900460ff16905083565b600081116105f9576040517f08c379a00000000000000000000000000000000000000000000000000000000081526004016105f090611366565b60405180910390fd5b60001515600360003373ffffffffffffffffffffffffffffffffffffffff1673ffffffffffffffffffffffffffffffffffffffff16815260200190815260200160002060020160009054906101000a900460ff1615151461068f576040517f08c379a0000000000000000000000000000000000000000000000000000000008152600401610686906115db565b60405180910390fd5b60006064600154600260003373ffffffffffffffffffffffffffffffffffffffff1673ffffffffffffffffffffffffffffffffffffffff168152602001908152602001600020546106e091906115fb565b6106ea919061166c565b90508082111561072f576040517f08c379a0000000000000000000000000000000000000000000000000000000008152600401610726906116e9565b60405180910390fd5b6040518060600160405280838152602001600260003373ffffffffffffffffffffffffffffffffffffffff1673ffffffffffffffffffffffffffffffffffffffff16815260200190815260200160002054815260200160011515815250600360003373ffffffffffffffffffffffffffffffffffffffff1673ffffffffffffffffffffffffffffffffffffffff168152602001908152602001600020600082015181600001556020820151816001015560408201518160020160006101000a81548160ff0219169083151502179055509050507f000000000000000000000000000000000000000000000000000000000000000073ffffffffffffffffffffffffffffffffffffffff1663a9059cbb33846040518363ffffffff1660e01b815260040161085d9291906114e7565b6020604051808303816000875af115801561087c573d6000803e3d6000fd5b505050506040513d601f19601f820116820180604052508101906108a0919061153c565b503373ffffffffffffffffffffffffffffffffffffffff167fd5c776eab9418d89c040ffee59f2310d225f5ff682191bcee59b0413a7fd4835836040516108e79190611179565b60405180910390a25050565b60008060009054906101000a900473ffffffffffffffffffffffffffffffffffffffff16905090565b7f000000000000000000000000000000000000000000000000000000000000000081565b60008111610983576040517f08c379a000000000000000000000000000000000000000000000000000000000815260040161097a90611755565b60405180910390fd5b6000600360003373ffffffffffffffffffffffffffffffffffffffff1673ffffffffffffffffffffffffffffffffffffffff16815260200190815260200160002090508060020160009054906101000a900460ff16610a17576040517f08c379a0000000000000000000000000000000000000000000000000000000008152600401610a0e906117c1565b60405180910390fd5b8060000154821115610a5e576040517f08c379a0000000000000000000000000000000000000000000000000000000008152600401610a559061182d565b60405180910390fd5b7f000000000000000000000000000000000000000000000000000000000000000073ffffffffffffffffffffffffffffffffffffffff166323b872dd3330856040518463ffffffff1660e01b8152600401610abb9392919061184d565b6020604051808303816000875af1158015610ada573d6000803e3d6000fd5b505050506040513d601f19601f82011682018060405250810190610afe919061153c565b5081816000016000828254610b139190611421565b925050819055506000816000015403610b445760008160020160006101000a81548160ff0219169083151502179055505b3373ffffffffffffffffffffffffffffffffffffffff167fc200a1f31dd659e356e0f112c82558e25f49f7b0f84438691cd96f5cb355882383604051610b8a9190611179565b60405180910390a25050565b7f000000000000000000000000000000000000000000000000000000000000000081565b610bc2610f7d565b6064811115610c06576040517f08c379a0000000000000000000000000000000000000000000000000000000008152600401610bfd906118d0565b60405180910390fd5b8060018190555050565b60008111610c53576040517f08c379a0000000000000000000000000000000000000000000000000000000008152600401610c4a90611755565b60405180910390fd5b80600260003373ffffffffffffffffffffffffffffffffffffffff1673ffffffffffffffffffffffffffffffffffffffff1681526020019081526020016000206000828254610ca291906118f0565b925050819055507f000000000000000000000000000000000000000000000000000000000000000073ffffffffffffffffffffffffffffffffffffffff166323b872dd3330846040518463ffffffff1660e01b8152600401610d069392919061184d565b6020604051808303816000875af1158015610d25573d6000803e3d6000fd5b505050506040513d601f19601f82011682018060405250810190610d49919061153c565b503373ffffffffffffffffffffffffffffffffffffffff167fd7243f6f8212d5188fd054141cf6ea89cfc0d91facb8c3afe2f88a135848014282604051610d909190611179565b60405180910390a250565b60015481565b600080600080600360008673ffffffffffffffffffffffffffffffffffffffff1673ffffffffffffffffffffffffffffffffffffffff16815260200190815260200160002060405180606001604052908160008201548152602001600182015481526020016002820160009054906101000a900460ff1615151515815250509050806000015181602001518260400151935093509350509193909250565b610e47610f7d565b600073ffffffffffffffffffffffffffffffffffffffff168173ffffffffffffffffffffffffffffffffffffffff1603610eb95760006040517f1e4fbdf7000000000000000000000000000000000000000000000000000000008152600401610eb0919061124e565b60405180910390fd5b610ec281611004565b50565b600080600360008473ffffffffffffffffffffffffffffffffffffffff1673ffffffffffffffffffffffffffffffffffffffff16815260200190815260200160002060405180606001604052908160008201548152602001600182015481526020016002820160009054906101000a900460ff16151515158152505090508060400151610f56576000915050610f78565b60015460648260000151610f6a91906115fb565b610f74919061166c565b9150505b919050565b610f856110c8565b73ffffffffffffffffffffffffffffffffffffffff16610fa36108f3565b73ffffffffffffffffffffffffffffffffffffffff161461100257610fc66110c8565b6040517f118cdaa7000000000000000000000000000000000000000000000000000000008152600401610ff9919061124e565b60405180910390fd5b565b60008060009054906101000a900473ffffffffffffffffffffffffffffffffffffffff169050816000806101000a81548173ffffffffffffffffffffffffffffffffffffffff021916908373ffffffffffffffffffffffffffffffffffffffff1602179055508173ffffffffffffffffffffffffffffffffffffffff168173ffffffffffffffffffffffffffffffffffffffff167f8be0079c531659141344cd1fd0a4f28419497f9722a3daafe3b4186f6b6457e060405160405180910390a35050565b600033905090565b600080fd5b600073ffffffffffffffffffffffffffffffffffffffff82169050919050565b6000611100826110d5565b9050919050565b611110816110f5565b811461111b57600080fd5b50565b60008135905061112d81611107565b92915050565b600060208284031215611149576111486110d0565b5b60006111578482850161111e565b91505092915050565b6000819050919050565b61117381611160565b82525050565b600060208201905061118e600083018461116a565b92915050565b61119d81611160565b81146111a857600080fd5b50565b6000813590506111ba81611194565b92915050565b6000602082840312156111d6576111d56110d0565b5b60006111e4848285016111ab565b91505092915050565b60008115159050919050565b611202816111ed565b82525050565b600060608201905061121d600083018661116a565b61122a602083018561116a565b61123760408301846111f9565b949350505050565b611248816110f5565b82525050565b6000602082019050611263600083018461123f565b92915050565b6000819050919050565b600061128e611289611284846110d5565b611269565b6110d5565b9050919050565b60006112a082611273565b9050919050565b60006112b282611295565b9050919050565b6112c2816112a7565b82525050565b60006020820190506112dd60008301846112b9565b92915050565b600082825260208201905092915050565b7f416d6f756e74206d757374206265206772656174686572207468616e207a657260008201527f6f00000000000000000000000000000000000000000000000000000000000000602082015250565b60006113506021836112e3565b915061135b826112f4565b604082019050919050565b6000602082019050818103600083015261137f81611343565b9050919050565b7f496e737566696369656e7420636f6c6c61746572616c00000000000000000000600082015250565b60006113bc6016836112e3565b91506113c782611386565b602082019050919050565b600060208201905081810360008301526113eb816113af565b9050919050565b7f4e487b7100000000000000000000000000000000000000000000000000000000600052601160045260246000fd5b600061142c82611160565b915061143783611160565b925082820390508181111561144f5761144e6113f2565b5b92915050565b7f43616e6e6f7420776974686472617720636f6c6c61746572616c206c6f636b6560008201527f6420666f722061206c6f616e0000000000000000000000000000000000000000602082015250565b60006114b1602c836112e3565b91506114bc82611455565b604082019050919050565b600060208201905081810360008301526114e0816114a4565b9050919050565b60006040820190506114fc600083018561123f565b611509602083018461116a565b9392505050565b611519816111ed565b811461152457600080fd5b50565b60008151905061153681611510565b92915050565b600060208284031215611552576115516110d0565b5b600061156084828501611527565b91505092915050565b7f4578697374696e67206c6f616e206d757374206265207265706169642066697260008201527f7374000000000000000000000000000000000000000000000000000000000000602082015250565b60006115c56022836112e3565b91506115d082611569565b604082019050919050565b600060208201905081810360008301526115f4816115b8565b9050919050565b600061160682611160565b915061161183611160565b925082820261161f81611160565b91508282048414831517611636576116356113f2565b5b5092915050565b7f4e487b7100000000000000000000000000000000000000000000000000000000600052601260045260246000fd5b600061167782611160565b915061168283611160565b9250826116925761169161163d565b5b828204905092915050565b7f4c6f616e206578636565647320636f6c6c61746572616c206c696d6974000000600082015250565b60006116d3601d836112e3565b91506116de8261169d565b602082019050919050565b60006020820190508181036000830152611702816116c6565b9050919050565b7f416d6f756e74206d7573742062652067726561746572207468616e207a65726f600082015250565b600061173f6020836112e3565b915061174a82611709565b602082019050919050565b6000602082019050818103600083015261176e81611732565b9050919050565b7f4e6f20616374697665206c6f616e000000000000000000000000000000000000600082015250565b60006117ab600e836112e3565b91506117b682611775565b602082019050919050565b600060208201905081810360008301526117da8161179e565b9050919050565b7f526570617920616d6f756e742065786365656473206c6f616e00000000000000600082015250565b60006118176019836112e3565b9150611822826117e1565b602082019050919050565b600060208201905081810360008301526118468161180a565b9050919050565b6000606082019050611862600083018661123f565b61186f602083018561123f565b61187c604083018461116a565b949350505050565b7f436f6c6c61746572616c20666163746f72206d757374206265203c3d20313030600082015250565b60006118ba6020836112e3565b91506118c582611884565b602082019050919050565b600060208201905081810360008301526118e9816118ad565b9050919050565b60006118fb82611160565b915061190683611160565b925082820190508082111561191e5761191d6113f2565b5b9291505056fea264697066735822122027f04dd8ff98e38401db6d0dca8c4b3259f240483a41002358d8018ef3eba20a64736f6c63430008140033",
  "linkReferences": {},
  "deployedLinkReferences": {}
}