{
  "_format": "hh-sol-artifact-1",
  "contractName": "BankManager",
  "sourceName": "contracts/bank/BankManager.sol",
  "abi": [
    {
      "inputs": [
        {
          "internalType": "address",
          "name": "asset_",
          "type": "address"
        },
        {
          "internalType": "uint256",
          "name": "ratePerSec_",
          "type": "uint256"
        },
        {
          "internalType": "uint256",
          "name": "maxDep_",
          "type": "uint256"
        },
        {
          "internalType": "uint256",
          "name": "maxWdr_",
          "type": "uint256"
        },
        {
          "internalType": "uint256",
          "name": "cooldown_",
          "type": "uint256"
        }
      ],
      "stateMutability": "nonpayable",
      "type": "constructor"
    },
    {
      "inputs": [
        {
          "internalType": "address",
          "name": "owner",
          "type": "address"
        }
      ],
      "name": "OwnableInvalidOwner",
      "type": "error"
    },
    {
      "inputs": [
        {
          "internalType": "address",
          "name": "account",
          "type": "address"
        }
      ],
      "name": "OwnableUnauthorizedAccount",
      "type": "error"
    },
    {
      "inputs": [
        {
          "internalType": "address",
          "name": "token",
          "type": "address"
        }
      ],
      "name": "SafeERC20FailedOperation",
      "type": "error"
    },
    {
      "anonymous": false,
      "inputs": [
        {
          "indexed": true,
          "internalType": "address",
          "name": "user",
          "type": "address"
        },
        {
          "indexed": false,
          "internalType": "uint256",
          "name": "interest",
          "type": "uint256"
        }
      ],
      "name": "Accrued",
      "type": "event"
    },
    {
      "anonymous": false,
      "inputs": [
        {
          "indexed": true,
          "internalType": "address",
          "name": "user",
          "type": "address"
        },
        {
          "indexed": false,
          "internalType": "uint256",
          "name": "amount",
          "type": "uint256"
        }
      ],
      "name": "Deposited",
      "type": "event"
    },
    {
      "anonymous": false,
      "inputs": [
        {
          "indexed": false,
          "internalType": "uint256",
          "name": "maxDep",
          "type": "uint256"
        },
        {
          "indexed": false,
          "internalType": "uint256",
          "name": "maxWdr",
          "type": "uint256"
        },
        {
          "indexed": false,
          "internalType": "uint256",
          "name": "cooldown",
          "type": "uint256"
        }
      ],
      "name": "LimitsUpdated",
      "type": "event"
    },
    {
      "anonymous": false,
      "inputs": [
        {
          "indexed": true,
          "internalType": "address",
          "name": "previousOwner",
          "type": "address"
        },
        {
          "indexed": true,
          "internalType": "address",
          "name": "newOwner",
          "type": "address"
        }
      ],
      "name": "OwnershipTransferred",
      "type": "event"
    },
    {
      "anonymous": false,
      "inputs": [
        {
          "indexed": false,
          "internalType": "uint256",
          "name": "ratePerSec",
          "type": "uint256"
        }
      ],
      "name": "RateUpdated",
      "type": "event"
    },
    {
      "anonymous": false,
      "inputs": [
        {
          "indexed": false,
          "internalType": "uint256",
          "name": "amount",
          "type": "uint256"
        }
      ],
      "name": "RewardsFunded",
      "type": "event"
    },
    {
      "anonymous": false,
      "inputs": [
        {
          "indexed": true,
          "internalType": "address",
          "name": "user",
          "type": "address"
        },
        {
          "indexed": false,
          "internalType": "uint256",
          "name": "amount",
          "type": "uint256"
        }
      ],
      "name": "Withdrawn",
      "type": "event"
    },
    {
      "inputs": [],
      "name": "asset",
      "outputs": [
        {
          "internalType": "contract IERC20",
          "name": "",
          "type": "address"
        }
      ],
      "stateMutability": "view",
      "type": "function"
    },
    {
      "inputs": [
        {
          "internalType": "address",
          "name": "",
          "type": "address"
        }
      ],
      "name": "balanceOf",
      "outputs": [
        {
          "internalType": "uint256",
          "name": "",
          "type": "uint256"
        }
      ],
      "stateMutability": "view",
      "type": "function"
    },
    {
      "inputs": [
        {
          "internalType": "uint256",
          "name": "amount",
          "type": "uint256"
        }
      ],
      "name": "deposit",
      "outputs": [],
      "stateMutability": "nonpayable",
      "type": "function"
    },
    {
      "inputs": [
        {
          "internalType": "uint256",
          "name": "amount",
          "type": "uint256"
        }
      ],
      "name": "fundRewards",
      "outputs": [],
      "stateMutability": "nonpayable",
      "type": "function"
    },
    {
      "inputs": [
        {
          "internalType": "address",
          "name": "",
          "type": "address"
        }
      ],
      "name": "lastAccrued",
      "outputs": [
        {
          "internalType": "uint256",
          "name": "",
          "type": "uint256"
        }
      ],
      "stateMutability": "view",
      "type": "function"
    },
    {
      "inputs": [
        {
          "internalType": "address",
          "name": "",
          "type": "address"
        }
      ],
      "name": "lastDepositTs",
      "outputs": [
        {
          "internalType": "uint256",
          "name": "",
          "type": "uint256"
        }
      ],
      "stateMutability": "view",
      "type": "function"
    },
    {
      "inputs": [],
      "name": "maxDepositPerTx",
      "outputs": [
        {
          "internalType": "uint256",
          "name": "",
          "type": "uint256"
        }
      ],
      "stateMutability": "view",
      "type": "function"
    },
    {
      "inputs": [],
      "name": "maxWithdrawPerTx",
      "outputs": [
        {
          "internalType": "uint256",
          "name": "",
          "type": "uint256"
        }
      ],
      "stateMutability": "view",
      "type": "function"
    },
    {
      "inputs": [],
      "name": "owner",
      "outputs": [
        {
          "internalType": "address",
          "name": "",
          "type": "address"
        }
      ],
      "stateMutability": "view",
      "type": "function"
    },
    {
      "inputs": [
        {
          "internalType": "address",
          "name": "user",
          "type": "address"
        }
      ],
      "name": "previewAccrued",
      "outputs": [
        {
          "internalType": "uint256",
          "name": "",
          "type": "uint256"
        }
      ],
      "stateMutability": "view",
      "type": "function"
    },
    {
      "inputs": [],
      "name": "ratePerSec",
      "outputs": [
        {
          "internalType": "uint256",
          "name": "",
          "type": "uint256"
        }
      ],
      "stateMutability": "view",
      "type": "function"
    },
    {
      "inputs": [],
      "name": "renounceOwnership",
      "outputs": [],
      "stateMutability": "nonpayable",
      "type": "function"
    },
    {
      "inputs": [],
      "name": "rewardPool",
      "outputs": [
        {
          "internalType": "uint256",
          "name": "",
          "type": "uint256"
        }
      ],
      "stateMutability": "view",
      "type": "function"
    },
    {
      "inputs": [
        {
          "internalType": "uint256",
          "name": "maxDep",
          "type": "uint256"
        },
        {
          "internalType": "uint256",
          "name": "maxWdr",
          "type": "uint256"
        },
        {
          "internalType": "uint256",
          "name": "cooldown",
          "type": "uint256"
        }
      ],
      "name": "setLimits",
      "outputs": [],
      "stateMutability": "nonpayable",
      "type": "function"
    },
    {
      "inputs": [
        {
          "internalType": "uint256",
          "name": "r",
          "type": "uint256"
        }
      ],
      "name": "setRate",
      "outputs": [],
      "stateMutability": "nonpayable",
      "type": "function"
    },
    {
      "inputs": [],
      "name": "totalAssets",
      "outputs": [
        {
          "internalType": "uint256",
          "name": "",
          "type": "uint256"
        }
      ],
      "stateMutability": "view",
      "type": "function"
    },
    {
      "inputs": [
        {
          "internalType": "address",
          "name": "newOwner",
          "type": "address"
        }
      ],
      "name": "transferOwnership",
      "outputs": [],
      "stateMutability": "nonpayable",
      "type": "function"
    },
    {
      "inputs": [
        {
          "internalType": "uint256",
          "name": "amount",
          "type": "uint256"
        }
      ],
      "name": "withdraw",
      "outputs": [],
      "stateMutability": "nonpayable",
      "type": "function"
    },
    {
      "inputs": [],
      "name": "withdrawCooldown",
      "outputs": [
        {
          "internalType": "uint256",
          "name": "",
          "type": "uint256"
        }
      ],
      "stateMutability": "view",
      "type": "function"
    }
  ],
  "bytecode": "0x60a06040523480156200001157600080fd5b5060405162001cef38038062001cef8339818101604052810190620000379190620002f5565b33600073ffffffffffffffffffffffffffffffffffffffff168173ffffffffffffffffffffffffffffffffffffffff1603620000ad5760006040517f1e4fbdf7000000000000000000000000000000000000000000000000000000008152600401620000a491906200038e565b60405180910390fd5b620000be816200018c60201b60201c565b50600073ffffffffffffffffffffffffffffffffffffffff168573ffffffffffffffffffffffffffffffffffffffff160362000131576040517f08c379a000000000000000000000000000000000000000000000000000000000815260040162000128906200040c565b60405180910390fd5b8473ffffffffffffffffffffffffffffffffffffffff1660808173ffffffffffffffffffffffffffffffffffffffff16815250508360058190555082600781905550816008819055508060098190555050505050506200042e565b60008060009054906101000a900473ffffffffffffffffffffffffffffffffffffffff169050816000806101000a81548173ffffffffffffffffffffffffffffffffffffffff021916908373ffffffffffffffffffffffffffffffffffffffff1602179055508173ffffffffffffffffffffffffffffffffffffffff168173ffffffffffffffffffffffffffffffffffffffff167f8be0079c531659141344cd1fd0a4f28419497f9722a3daafe3b4186f6b6457e060405160405180910390a35050565b600080fd5b600073ffffffffffffffffffffffffffffffffffffffff82169050919050565b6000620002828262000255565b9050919050565b620002948162000275565b8114620002a057600080fd5b50565b600081519050620002b48162000289565b92915050565b6000819050919050565b620002cf81620002ba565b8114620002db57600080fd5b50565b600081519050620002ef81620002c4565b92915050565b600080600080600060a0868803121562000314576200031362000250565b5b60006200032488828901620002a3565b95505060206200033788828901620002de565b94505060406200034a88828901620002de565b93505060606200035d88828901620002de565b92505060806200037088828901620002de565b9150509295509295909350565b620003888162000275565b82525050565b6000602082019050620003a560008301846200037d565b92915050565b600082825260208201905092915050565b7f61737365743d3000000000000000000000000000000000000000000000000000600082015250565b6000620003f4600783620003ab565b91506200040182620003bc565b602082019050919050565b600060208201905081810360008301526200042781620003e5565b9050919050565b6080516118906200045f6000396000818161072001528181610801015281816109010152610a3e01526118906000f3fe608060405234801561001057600080fd5b50600436106101215760003560e01c80634e2e8d60116100ad57806378a9c3a51161007157806378a9c3a5146102e65780638da5cb5b1461031657806393707a1914610334578063b6b55f2514610350578063f2fde38b1461036c57610121565b80634e2e8d60146102525780635d926ced1461027057806366666aa91461028e57806370a08231146102ac578063715018a6146102dc57610121565b80632e1a7d4d116100f45780632e1a7d4d146101c057806334fcf437146101dc57806338d52e0f146101f85780633b486a25146102165780633cbfe3a11461023457610121565b806301e1d11414610126578063189ae5f214610144578063236c18c3146101605780632985451c14610190575b600080fd5b61012e610388565b60405161013b9190611262565b60405180910390f35b61015e600480360381019061015991906112ae565b61038e565b005b61017a6004803603810190610175919061135f565b6103eb565b6040516101879190611262565b60405180910390f35b6101aa60048036038101906101a5919061135f565b6104da565b6040516101b79190611262565b60405180910390f35b6101da60048036038101906101d5919061138c565b6104f2565b005b6101f660048036038101906101f1919061138c565b6107b6565b005b6102006107ff565b60405161020d9190611418565b60405180910390f35b61021e610823565b60405161022b9190611262565b60405180910390f35b61023c610829565b6040516102499190611262565b60405180910390f35b61025a61082f565b6040516102679190611262565b60405180910390f35b610278610835565b6040516102859190611262565b60405180910390f35b61029661083b565b6040516102a39190611262565b60405180910390f35b6102c660048036038101906102c1919061135f565b610841565b6040516102d39190611262565b60405180910390f35b6102e4610859565b005b61030060048036038101906102fb919061135f565b61086d565b60405161030d9190611262565b60405180910390f35b61031e610885565b60405161032b9190611442565b60405180910390f35b61034e6004803603810190610349919061138c565b6108ae565b005b61036a6004803603810190610365919061138c565b610999565b005b6103866004803603810190610381919061135f565b610c13565b005b60045481565b610396610c99565b8260078190555081600881905550806009819055507faa2ef8ba434f2f6bdaad3fcc2d5c35f02b08a47173c94877259407614bc46b558383836040516103de9392919061145d565b60405180910390a1505050565b600080600260008473ffffffffffffffffffffffffffffffffffffffff1673ffffffffffffffffffffffffffffffffffffffff1681526020019081526020016000205490506000600160008573ffffffffffffffffffffffffffffffffffffffff1673ffffffffffffffffffffffffffffffffffffffff16815260200190815260200160002054905060008114806104835750600082145b15610493576000925050506104d5565b600082426104a191906114c3565b9050670de0b6b3a764000081600554846104bb91906114f7565b6104c591906114f7565b6104cf9190611568565b93505050505b919050565b60036020528060005260406000206000915090505481565b60008111610535576040517f08c379a000000000000000000000000000000000000000000000000000000000815260040161052c906115f6565b60405180910390fd5b6000600854111561058657600854811115610585576040517f08c379a000000000000000000000000000000000000000000000000000000000815260040161057c90611662565b60405180910390fd5b5b6000600954111561062157600954600360003373ffffffffffffffffffffffffffffffffffffffff1673ffffffffffffffffffffffffffffffffffffffff168152602001908152602001600020546105de9190611682565b421015610620576040517f08c379a000000000000000000000000000000000000000000000000000000000815260040161061790611702565b60405180910390fd5b5b61062a33610d20565b6000600160003373ffffffffffffffffffffffffffffffffffffffff1673ffffffffffffffffffffffffffffffffffffffff168152602001908152602001600020549050818110156106b1576040517f08c379a00000000000000000000000000000000000000000000000000000000081526004016106a89061176e565b60405180910390fd5b81816106bd91906114c3565b600160003373ffffffffffffffffffffffffffffffffffffffff1673ffffffffffffffffffffffffffffffffffffffff16815260200190815260200160002081905550816004600082825461071291906114c3565b9250508190555061076433837f000000000000000000000000000000000000000000000000000000000000000073ffffffffffffffffffffffffffffffffffffffff16610fda9092919063ffffffff16565b3373ffffffffffffffffffffffffffffffffffffffff167f7084f5476618d8e60b11ef0d7d3f06914655adb8793e28ff7f018d4c76d505d5836040516107aa9190611262565b60405180910390a25050565b6107be610c99565b806005819055507fe65c987b2e4668e09ba867026921588005b2b2063607a1e7e7d91683c8f91b7b816040516107f49190611262565b60405180910390a150565b7f000000000000000000000000000000000000000000000000000000000000000081565b60055481565b60095481565b60075481565b60085481565b60065481565b60016020528060005260406000206000915090505481565b610861610c99565b61086b6000611059565b565b60026020528060005260406000206000915090505481565b60008060009054906101000a900473ffffffffffffffffffffffffffffffffffffffff16905090565b6108b6610c99565b600081116108f9576040517f08c379a00000000000000000000000000000000000000000000000000000000081526004016108f0906115f6565b60405180910390fd5b6109463330837f000000000000000000000000000000000000000000000000000000000000000073ffffffffffffffffffffffffffffffffffffffff1661111d909392919063ffffffff16565b80600660008282546109589190611682565b925050819055507fe42dde25409a3e8c7c119c1c722610d9e9bd96e73e3cead774863c9ffdd870d68160405161098e9190611262565b60405180910390a150565b600081116109dc576040517f08c379a00000000000000000000000000000000000000000000000000000000081526004016109d3906115f6565b60405180910390fd5b60006007541115610a2d57600754811115610a2c576040517f08c379a0000000000000000000000000000000000000000000000000000000008152600401610a23906117da565b60405180910390fd5b5b610a3633610d20565b610a833330837f000000000000000000000000000000000000000000000000000000000000000073ffffffffffffffffffffffffffffffffffffffff1661111d909392919063ffffffff16565b80600160003373ffffffffffffffffffffffffffffffffffffffff1673ffffffffffffffffffffffffffffffffffffffff1681526020019081526020016000206000828254610ad29190611682565b925050819055508060046000828254610aeb9190611682565b9250508190555042600360003373ffffffffffffffffffffffffffffffffffffffff1673ffffffffffffffffffffffffffffffffffffffff168152602001908152602001600020819055506000600260003373ffffffffffffffffffffffffffffffffffffffff1673ffffffffffffffffffffffffffffffffffffffff1681526020019081526020016000205403610bc25742600260003373ffffffffffffffffffffffffffffffffffffffff1673ffffffffffffffffffffffffffffffffffffffff168152602001908152602001600020819055505b3373ffffffffffffffffffffffffffffffffffffffff167f2da466a7b24304f47e87fa2e1e5a81b9831ce54fec19055ce277ca2f39ba42c482604051610c089190611262565b60405180910390a250565b610c1b610c99565b600073ffffffffffffffffffffffffffffffffffffffff168173ffffffffffffffffffffffffffffffffffffffff1603610c8d5760006040517f1e4fbdf7000000000000000000000000000000000000000000000000000000008152600401610c849190611442565b60405180910390fd5b610c9681611059565b50565b610ca161119f565b73ffffffffffffffffffffffffffffffffffffffff16610cbf610885565b73ffffffffffffffffffffffffffffffffffffffff1614610d1e57610ce261119f565b6040517f118cdaa7000000000000000000000000000000000000000000000000000000008152600401610d159190611442565b60405180910390fd5b565b6000600260008373ffffffffffffffffffffffffffffffffffffffff1673ffffffffffffffffffffffffffffffffffffffff1681526020019081526020016000205490506000600160008473ffffffffffffffffffffffffffffffffffffffff1673ffffffffffffffffffffffffffffffffffffffff16815260200190815260200160002054905060008103610dfb5742600260008573ffffffffffffffffffffffffffffffffffffffff1673ffffffffffffffffffffffffffffffffffffffff168152602001908152602001600020819055505050610fd7565b6000808314610e15578242610e1091906114c3565b610e18565b60005b905060008103610e6e5742600260008673ffffffffffffffffffffffffffffffffffffffff1673ffffffffffffffffffffffffffffffffffffffff16815260200190815260200160002081905550505050610fd7565b6000670de0b6b3a76400008260055485610e8891906114f7565b610e9291906114f7565b610e9c9190611568565b9050600654811115610eae5760065490505b6000811115610f8e5780600160008773ffffffffffffffffffffffffffffffffffffffff1673ffffffffffffffffffffffffffffffffffffffff1681526020019081526020016000206000828254610f069190611682565b925050819055508060046000828254610f1f9190611682565b925050819055508060066000828254610f3891906114c3565b925050819055508473ffffffffffffffffffffffffffffffffffffffff167f603f16706d8facbdadddadc2f84737909caebc5d1f3adf53d69014f2d908611c82604051610f859190611262565b60405180910390a25b42600260008773ffffffffffffffffffffffffffffffffffffffff1673ffffffffffffffffffffffffffffffffffffffff16815260200190815260200160002081905550505050505b50565b611054838473ffffffffffffffffffffffffffffffffffffffff1663a9059cbb858560405160240161100d9291906117fa565b604051602081830303815290604052915060e01b6020820180517bffffffffffffffffffffffffffffffffffffffffffffffffffffffff83818316178352505050506111a7565b505050565b60008060009054906101000a900473ffffffffffffffffffffffffffffffffffffffff169050816000806101000a81548173ffffffffffffffffffffffffffffffffffffffff021916908373ffffffffffffffffffffffffffffffffffffffff1602179055508173ffffffffffffffffffffffffffffffffffffffff168173ffffffffffffffffffffffffffffffffffffffff167f8be0079c531659141344cd1fd0a4f28419497f9722a3daafe3b4186f6b6457e060405160405180910390a35050565b611199848573ffffffffffffffffffffffffffffffffffffffff166323b872dd86868660405160240161115293929190611823565b604051602081830303815290604052915060e01b6020820180517bffffffffffffffffffffffffffffffffffffffffffffffffffffffff83818316178352505050506111a7565b50505050565b600033905090565b600080602060008451602086016000885af1806111ca576040513d6000823e3d81fd5b3d9250600051915050600082146111e5576001811415611201565b60008473ffffffffffffffffffffffffffffffffffffffff163b145b1561124357836040517f5274afe700000000000000000000000000000000000000000000000000000000815260040161123a9190611442565b60405180910390fd5b50505050565b6000819050919050565b61125c81611249565b82525050565b60006020820190506112776000830184611253565b92915050565b600080fd5b61128b81611249565b811461129657600080fd5b50565b6000813590506112a881611282565b92915050565b6000806000606084860312156112c7576112c661127d565b5b60006112d586828701611299565b93505060206112e686828701611299565b92505060406112f786828701611299565b9150509250925092565b600073ffffffffffffffffffffffffffffffffffffffff82169050919050565b600061132c82611301565b9050919050565b61133c81611321565b811461134757600080fd5b50565b60008135905061135981611333565b92915050565b6000602082840312156113755761137461127d565b5b60006113838482850161134a565b91505092915050565b6000602082840312156113a2576113a161127d565b5b60006113b084828501611299565b91505092915050565b6000819050919050565b60006113de6113d96113d484611301565b6113b9565b611301565b9050919050565b60006113f0826113c3565b9050919050565b6000611402826113e5565b9050919050565b611412816113f7565b82525050565b600060208201905061142d6000830184611409565b92915050565b61143c81611321565b82525050565b60006020820190506114576000830184611433565b92915050565b60006060820190506114726000830186611253565b61147f6020830185611253565b61148c6040830184611253565b949350505050565b7f4e487b7100000000000000000000000000000000000000000000000000000000600052601160045260246000fd5b60006114ce82611249565b91506114d983611249565b92508282039050818111156114f1576114f0611494565b5b92915050565b600061150282611249565b915061150d83611249565b925082820261151b81611249565b9150828204841483151761153257611531611494565b5b5092915050565b7f4e487b7100000000000000000000000000000000000000000000000000000000600052601260045260246000fd5b600061157382611249565b915061157e83611249565b92508261158e5761158d611539565b5b828204905092915050565b600082825260208201905092915050565b7f616d6f756e743d30000000000000000000000000000000000000000000000000600082015250565b60006115e0600883611599565b91506115eb826115aa565b602082019050919050565b6000602082019050818103600083015261160f816115d3565b9050919050565b7f6d61782077697468647261770000000000000000000000000000000000000000600082015250565b600061164c600c83611599565b915061165782611616565b602082019050919050565b6000602082019050818103600083015261167b8161163f565b9050919050565b600061168d82611249565b915061169883611249565b92508282019050808211156116b0576116af611494565b5b92915050565b7f636f6f6c646f776e000000000000000000000000000000000000000000000000600082015250565b60006116ec600883611599565b91506116f7826116b6565b602082019050919050565b6000602082019050818103600083015261171b816116df565b9050919050565b7f696e73756666696369656e740000000000000000000000000000000000000000600082015250565b6000611758600c83611599565b915061176382611722565b602082019050919050565b600060208201905081810360008301526117878161174b565b9050919050565b7f6d6178206465706f736974000000000000000000000000000000000000000000600082015250565b60006117c4600b83611599565b91506117cf8261178e565b602082019050919050565b600060208201905081810360008301526117f3816117b7565b9050919050565b600060408201905061180f6000830185611433565b61181c6020830184611253565b9392505050565b60006060820190506118386000830186611433565b6118456020830185611433565b6118526040830184611253565b94935050505056fea26469706673582212200bbbf34a947175b5eb888d0359172bdd0deb1a2881eb76b113fb75020451ec0064736f6c63430008140033",
  "linkReferences": {},
  "deployedLinkReferences": {}
}